{
  "contractName": "ProductRegistry",
  "abi": [
    {
      "anonymous": false,
      "inputs": [
        {
          "indexed": false,
          "internalType": "string",
          "name": "productId",
          "type": "string"
        },
        {
          "indexed": false,
          "internalType": "string",
          "name": "dataHash",
          "type": "string"
        },
        {
          "indexed": false,
          "internalType": "uint256",
          "name": "timestamp",
          "type": "uint256"
        }
      ],
      "name": "ProductStored",
      "type": "event"
    },
    {
      "inputs": [
        {
          "internalType": "string",
          "name": "",
          "type": "string"
        }
      ],
      "name": "products",
      "outputs": [
        {
          "internalType": "string",
          "name": "productId",
          "type": "string"
        },
        {
          "internalType": "string",
          "name": "dataHash",
          "type": "string"
        },
        {
          "internalType": "uint256",
          "name": "timestamp",
          "type": "uint256"
        }
      ],
      "stateMutability": "view",
      "type": "function",
      "constant": true
    },
    {
      "inputs": [
        {
          "internalType": "string",
          "name": "_productId",
          "type": "string"
        },
        {
          "internalType": "string",
          "name": "_dataHash",
          "type": "string"
        }
      ],
      "name": "storeProduct",
      "outputs": [],
      "stateMutability": "nonpayable",
      "type": "function"
    },
    {
      "inputs": [
        {
          "internalType": "string",
          "name": "_productId",
          "type": "string"
        }
      ],
      "name": "getProduct",
      "outputs": [
        {
          "internalType": "string",
          "name": "",
          "type": "string"
        },
        {
          "internalType": "string",
          "name": "",
          "type": "string"
        },
        {
          "internalType": "uint256",
          "name": "",
          "type": "uint256"
        }
      ],
      "stateMutability": "view",
      "type": "function",
      "constant": true
    }
  ],
  "bytecode": "0x608060405234801561001057600080fd5b50610aa2806100206000396000f3fe608060405234801561001057600080fd5b50600436106100415760003560e01c80630186a423146100465780631a9304ff1461007857806368111cce14610094575b600080fd5b610060600480360381019061005b919061059d565b6100c6565b60405161006f9392919061067e565b60405180910390f35b610092600480360381019061008d91906106c3565b610216565b005b6100ae60048036038101906100a9919061059d565b6102c7565b6040516100bd9392919061067e565b60405180910390f35b6000818051602081018201805184825260208301602085012081835280955050505050506000915090508060000180546100ff9061076a565b80601f016020809104026020016040519081016040528092919081815260200182805461012b9061076a565b80156101785780601f1061014d57610100808354040283529160200191610178565b820191906000526020600020905b81548152906001019060200180831161015b57829003601f168201915b50505050509080600101805461018d9061076a565b80601f01602080910402602001604051908101604052809291908181526020018280546101b99061076a565b80156102065780601f106101db57610100808354040283529160200191610206565b820191906000526020600020905b8154815290600101906020018083116101e957829003601f168201915b5050505050908060020154905083565b60405180606001604052808381526020018281526020014281525060008360405161024191906107d7565b90815260200160405180910390206000820151816000019081610264919061099a565b50602082015181600101908161027a919061099a565b50604082015181600201559050507f4d5521908e2f8c01d0303d6f98f9edf453833aa635941539ad66e16c0a5579f28282426040516102bb9392919061067e565b60405180910390a15050565b6060806000806000856040516102dd91906107d7565b90815260200160405180910390206040518060600160405290816000820180546103069061076a565b80601f01602080910402602001604051908101604052809291908181526020018280546103329061076a565b801561037f5780601f106103545761010080835404028352916020019161037f565b820191906000526020600020905b81548152906001019060200180831161036257829003601f168201915b505050505081526020016001820180546103989061076a565b80601f01602080910402602001604051908101604052809291908181526020018280546103c49061076a565b80156104115780601f106103e657610100808354040283529160200191610411565b820191906000526020600020905b8154815290600101906020018083116103f457829003601f168201915b505050505081526020016002820154815250509050806000015181602001518260400151935093509350509193909250565b6000604051905090565b600080fd5b600080fd5b600080fd5b600080fd5b6000601f19601f8301169050919050565b7f4e487b7100000000000000000000000000000000000000000000000000000000600052604160045260246000fd5b6104aa82610461565b810181811067ffffffffffffffff821117156104c9576104c8610472565b5b80604052505050565b60006104dc610443565b90506104e882826104a1565b919050565b600067ffffffffffffffff82111561050857610507610472565b5b61051182610461565b9050602081019050919050565b82818337600083830152505050565b600061054061053b846104ed565b6104d2565b90508281526020810184848401111561055c5761055b61045c565b5b61056784828561051e565b509392505050565b600082601f83011261058457610583610457565b5b813561059484826020860161052d565b91505092915050565b6000602082840312156105b3576105b261044d565b5b600082013567ffffffffffffffff8111156105d1576105d0610452565b5b6105dd8482850161056f565b91505092915050565b600081519050919050565b600082825260208201905092915050565b60005b83811015610620578082015181840152602081019050610605565b60008484015250505050565b6000610637826105e6565b61064181856105f1565b9350610651818560208601610602565b61065a81610461565b840191505092915050565b6000819050919050565b61067881610665565b82525050565b60006060820190508181036000830152610698818661062c565b905081810360208301526106ac818561062c565b90506106bb604083018461066f565b949350505050565b600080604083850312156106da576106d961044d565b5b600083013567ffffffffffffffff8111156106f8576106f7610452565b5b6107048582860161056f565b925050602083013567ffffffffffffffff81111561072557610724610452565b5b6107318582860161056f565b9150509250929050565b7f4e487b7100000000000000000000000000000000000000000000000000000000600052602260045260246000fd5b6000600282049050600182168061078257607f821691505b6020821081036107955761079461073b565b5b50919050565b600081905092915050565b60006107b1826105e6565b6107bb818561079b565b93506107cb818560208601610602565b80840191505092915050565b60006107e382846107a6565b915081905092915050565b60008190508160005260206000209050919050565b60006020601f8301049050919050565b600082821b905092915050565b6000600883026108507fffffffffffffffffffffffffffffffffffffffffffffffffffffffffffffffff82610813565b61085a8683610813565b95508019841693508086168417925050509392505050565b6000819050919050565b600061089761089261088d84610665565b610872565b610665565b9050919050565b6000819050919050565b6108b18361087c565b6108c56108bd8261089e565b848454610820565b825550505050565b600090565b6108da6108cd565b6108e58184846108a8565b505050565b5b81811015610909576108fe6000826108d2565b6001810190506108eb565b5050565b601f82111561094e5761091f816107ee565b61092884610803565b81016020851015610937578190505b61094b61094385610803565b8301826108ea565b50505b505050565b600082821c905092915050565b600061097160001984600802610953565b1980831691505092915050565b600061098a8383610960565b9150826002028217905092915050565b6109a3826105e6565b67ffffffffffffffff8111156109bc576109bb610472565b5b6109c6825461076a565b6109d182828561090d565b600060209050601f831160018114610a0457600084156109f2578287015190505b6109fc858261097e565b865550610a64565b601f198416610a12866107ee565b60005b82811015610a3a57848901518255600182019150602085019450602081019050610a15565b86831015610a575784890151610a53601f891682610960565b8355505b6001600288020188555050505b50505050505056fea264697066735822122068551d7855c8ce526288cd423354dd8a3e3dccb184f7c640c5539a7c7a060e4664736f6c63430008130033",
  "immutableReferences": {},
  "source": "// SPDX-License-Identifier: MIT\r\npragma solidity ^0.8.19;\r\n\r\ncontract ProductRegistry {\r\n    struct Product {\r\n        string productId;\r\n        string dataHash;\r\n        uint256 timestamp;\r\n    }\r\n\r\n    mapping(string => Product) public products;\r\n\r\n    event ProductStored(string productId, string dataHash, uint256 timestamp);\r\n\r\n    function storeProduct(string memory _productId, string memory _dataHash) public {\r\n        products[_productId] = Product(_productId, _dataHash, block.timestamp);\r\n        emit ProductStored(_productId, _dataHash, block.timestamp);\r\n    }\r\n\r\n    function getProduct(string memory _productId) public view returns (string memory, string memory, uint256) {\r\n        Product memory p = products[_productId];\r\n        return (p.productId, p.dataHash, p.timestamp);\r\n    }\r\n}\r\n",
  "sourcePath": "E:\\7th sem\\qr-blockchain-project\\contracts\\ProductRegistry.sol",
  "compiler": {
    "name": "solc",
    "version": "0.8.19+commit.7dd6d404.Emscripten.clang"
  },
  "schemaVersion": "3.4.16",
  "updatedAt": "2025-09-01T08:54:59.637Z",
  "networkType": "ethereum",
  "devdoc": {
    "kind": "dev",
    "methods": {},
    "version": 1
  },
  "userdoc": {
    "kind": "user",
    "methods": {},
    "version": 1
  }
}